:100000000C9463000C94640F0C94910F0C948B006F
:100010000C948B000C948B000C948B000C948B0034
:100020000C948B000C945C0D0C948B000C948B0046
:100030000C948B000C948B000C948B000C948B0014
:100040000C94BE0F0C948B000C94F9110C9440127C
:100050000C948B000C948B000C948B000C948B00F4
:100060000C948B000C948B000000000024002700EF
:100070002A0000000000250028002B0000000000DE
:1000800023002600290004040404040404040202DA
:100090000202020203030303030301020408102007
:1000A0004080010204081020010204081020000012
:1000B0000007000201000003040600000000000029
:1000C0000000B101A61311241FBECFEFD8E0DEBFA0
:1000D000CDBF14E0A0E0B1E0E0E0F1E302C00590A4
:1000E0000D92A435B107D9F715E0A4E5B4E001C03D
:1000F0001D92AA3AB107E1F710E0C6ECD0E004C0C7
:100100002297FE010E944318C23CD107C9F70E9402
:10011000F6130C947E180C940000A0E0B0E0E3E924
:10012000F0E00C9451187C01EB018A01690109C0CF
:10013000CE012196F6010995F70181937F010150C7
:10014000104001151105A1F7CDB7DEB7E8E00C941A
:100150006D18A0E0B0E0EFEAF0E00C945118EC016B
:100160007B018A01690109C0CE012196F7016191E5
:100170007F01F60109950150104001151105A1F705
:10018000CDB7DEB7E8E00C946D189C01F999FECF6D
:1001900032BD21BDF89A80B508959C01F999FECF32
:1001A0001FBA32BD21BD60BD0FB6F894FA9AF99A14
:1001B0000FBE08952F923F924F925F926F927F925F
:1001C0008F929F92AF92BF92CF92DF92EF92FF9267
:1001D0000F931F93DF93CF9300D000D0CDB7DEB73E
:1001E00039014A010E94E5157B018C012091A1048F
:1001F0003091A2044091A3045091A4040E949D1741
:1002000069837A838B839C836093AD047093AE047F
:100210008093AF049093B004C801B7012091990472
:1002200030919A0440919B0450919C040E94E615E1
:100230005B016C016093990470939A0480939B0412
:1002400090939C042090A5043090A6044090A704AD
:100250005090A80460E070E088EC92E4A201910163
:100260000E944E167B018C01C601B501A8019701C1
:100270000E949917181664F017FB109517F910953E
:10028000C601B501A80197010E944A16882344F4CB
:10029000E0929904F0929A0400939B0410939C04BA
:1002A000C201B1012091990430919A0440919B04BC
:1002B00050919C040E949D175B016C016093B104F6
:1002C0007093B2048093B3049093B404C401B30157
:1002D00020919D0430919E0440919F045091A00470
:1002E0000E94E5152091A9043091AA044091AB0425
:1002F0005091AC040E949D177B018C016093B50462
:100300007093B6048093B7049093B80460929D04F0
:1003100070929E0480929F049092A00469817A81D9
:100320008B819C81A60195010E94E615A801970189
:100330000E94E5150F900F900F900F90CF91DF91D5
:100340001F910F91FF90EF90DF90CF90BF90AF90F3
:100350009F908F907F906F905F904F903F902F90E5
:100360000895AF92CF92EF920F931F9384E694E09B
:100370006CE04BE026E007E078E0E72E59E0C52E80
:100380003AE0A32E0E94050D89E794E062E070E058
:1003900043E150E022E130E00E94E60D6091040468
:1003A00070910504409106045091070420910804BF
:1003B0003091090400910A0410910B0481E994E042
:1003C0000E940C0F1F910F91EF90CF90AF90089566
:1003D00084E00E94A5112091D4043091D5042F5FB0
:1003E0003F4F3093D5042093D4042091D60430E0BD
:1003F000019709F431E0220F232B2093D60480913A
:10040000D4049091D504089709F043C08091D80492
:100410009091D904892B51F48091D6048093D7040C
:1004200081E090E09093D9048093D8048091D60421
:100430008D3059F41092DF041092DE0481E090E0D8
:100440009093E1048093E0041EC08091E0049091B9
:10045000E104892BC1F48091DE049091DF040497BC
:100460004CF4E091DE04F091DF048091D604E65272
:10047000FB4F80838091DE049091DF04019690937E
:10048000DF048093DE041092D6041092D5041092FB
:10049000D40408958091E0049091E104019709F05B
:1004A0005DC00E9406106093E2047093E3048093A1
:1004B000E4049093E5048091DA048C3421F54091B2
:1004C000DB042091DC04742F60E030E0622B732B9E
:1004D000882777FD8095982F0E94E91620E030E06C
:1004E00040E85DE30E949D1723E333E948E853E4C5
:1004F0000E94E51560931004709311048093120418
:100500009093130427C08091DA04863619F5409140
:10051000DB042091DC04742F60E030E0622B732B4D
:10052000882777FD8095982F0E94E91620E030E01B
:1005300040E85DE30E949D1723E333E948E853E474
:100540000E94E5156093E6047093E7048093E80445
:100550009093E9041092E1041092E0046091EA049F
:100560007091EB048091EC049091ED0420911004C3
:100570003091110440911204509113040E94E61529
:100580006093EA047093EB048093EC049093ED0481
:100590008091F2049091F30401969093F304809378
:1005A000F2040E9406102091E2043091E30440918D
:1005B000E4045091E504621B730B840B950B695E98
:1005C000734080409040E0F01092D5041092D40423
:1005D0001092DF041092DE041092D6041092E1040F
:1005E0001092E0041092D9041092D8040E940610D0
:1005F0006093E2047093E3048093E4049093E50431
:1006000008958DE061E00E941211089583E060E09A
:100610000E94121184E060E00E94121181E068EEF5
:1006200071E042E050E00E94410F08952F923F9206
:100630004F925F926F927F928F929F92AF92BF92F2
:10064000CF92DF92EF92FF920F931F93DF93CF939E
:1006500000D000D0CDB7DEB71B012C015C834B83EB
:1006600020E030E040E050E00E944A1688232CF45D
:1006700020E030E040E05FEB04C020E030E040E00C
:100680005FE300E010E00CC0CA01B90120E030E0F7
:1006900040E251E40E944E169B01AC010F5F1F4FD8
:1006A0008B819C81081719077CF3C201B1010E945C
:1006B000E6155B016C01C201B10120E030E040E0D1
:1006C00050E00E944A16882324F4D7FAD094D7F831
:1006D000D0940F2EFDEC6F2EFCEC7F2EFCEC8F2EB9
:1006E000FDE39F2EF02D1A82198207C0E981FA815D
:1006F0003196FA83E98337014801C401B30120E050
:1007000030E040E251E40E949D177B018C01A6017C
:1007100095010E944A1618164CF7C201B10120E05B
:1007200030E040E050E00E944A1688232CF48BE829
:1007300095E06DE20E942F1489819A81892B41F402
:100740008BE895E060E070E04AE050E00E941E1502
:100750004424552433C0C601B501A40193010E946D
:100760004E160E94B6169B01AC017B018BE895E00A
:10077000B9014AE050E00E941E150027F7FC0095E1
:10078000102FC801B7010E94E916A40193010E942D
:100790009D179B01AC01C601B5010E94E5155B01E7
:1007A0006C01C401B30120E030E040E251E40E945A
:1007B0004E163B014C010894411C511CE981FA8101
:1007C0004E165F0644F28B819C8118161906ACF513
:1007D0008BE895E06EE20E942F1488249924C601CC
:1007E000B50120E030E040E251E40E949D175B013A
:1007F0006C010E94B6169B01AC017B018BE895E071
:10080000B9014AE050E00E941E150027F7FC009550
:10081000102FC801B7010E94E9169B01AC01C60167
:10082000B5010E94E5155B016C010894811C911CC7
:10083000EB81FC818E169F0694F20F900F900F9023
:100840000F90CF91DF911F910F91FF90EF90DF906C
:10085000CF90BF90AF909F908F907F906F905F9060
:100860004F903F902F9008950F931F930BE815E042
:10087000C80160E071E00E943115609154047091EC
:100880005504809156049091570442E050E00E9434
:100890001603C8016BE071E00E9431156091EE040F
:1008A0007091EF048091F0049091F10442E050E0E7
:1008B0000E941603C80167E171E00E943115609142
:1008C000A1047091A2048091A3049091A40442E039
:1008D00050E00E941603C80162E271E00E943115E7
:1008E0006091A5047091A6048091A7049091A8043A
:1008F00042E050E00E941603C80166E271E00E94E7
:1009000031156091A9047091AA048091AB04909173
:10091000AC0442E050E00E941603C8016AE271E0B4
:100920000E94311560910C0470910D0480910E04A9
:1009300090910F0442E050E00E941603C80164E366
:1009400071E00E9431156091BF047091C0048091E4
:10095000C1049091C20440E050E00E941603C80117
:100960006EE371E00E9431151F910F9108950F936E
:100970001F930BE815E0C80161E471E00E94311596
:100980006091AD047091AE048091AF049091B00479
:1009900042E050E00E941603C8016BE571E00E943E
:1009A00031156091B1047091B2048091B3049091BB
:1009B000B40442E050E00E941603C8016FE571E004
:1009C0000E9431156091B5047091B6048091B7040E
:1009D0009091B80442E050E00E941603C80163E61B
:1009E00071E00E9431156091BF047091C004809144
:1009F000C1049091C20440E050E00E941603C80177
:100A00006CE671E00E9431151F910F910895EF92ED
:100A1000FF920F931F93609154047091550480913D
:100A200056049091570442E050E00E941603EBE810
:100A3000EE2EE5E0FE2E0EE611E0C701B8010E94A1
:100A400031156091EE047091EF048091F004909163
:100A5000F10442E050E00E941603C701B8010E9471
:100A600031156091A1047091A2048091A30490912A
:100A7000A40442E050E00E941603C701B8010E949E
:100A800031156091A5047091A6048091A7049091FE
:100A9000A80442E050E00E941603C701B8010E947A
:100AA00031156091A9047091AA048091AB049091D2
:100AB000AC0442E050E00E941603C701B8010E9456
:100AC00031156091BF047091C0048091C104909170
:100AD000C20440E050E00E941603C7010E94371490
:100AE0001F910F91FF90EF9008950F931F930BE8C4
:100AF00015E0C80161E771E00E94D215C80164E900
:100B000071E00E94D215C8016FEA71E00E94D2150F
:100B1000C80161ED71E00E94D215C80169E072E080
:100B20000E94D215C8016EE272E00E94D215C8017F
:100B300069E472E00E94D215C80168E572E00E9483
:100B4000D215C8016EE772E00E94D215C80163EAAF
:100B500072E00E94D215C80168EC72E00E94D215C2
:100B6000C8016DEE72E00E94D2151F910F91089599
:100B70000F931F930BE815E0C80140E052EC61E0D1
:100B800070E00E947B12C80164E173E00E94D215FC
:100B9000C80167E573E00E94D215C80161E973E0FE
:100BA0000E94D215C80164ED73E00E94D2151F9116
:100BB0000F9108951F93182F8DE0612F0E945111FE
:100BC0001093C3041F910895EF92FF920F931F9308
:100BD0000E9406109B01AC016093C4047093C5048D
:100BE0008093C6049093C704E090C804F090C904B1
:100BF0000091CA041091CB04DC01CB018E199F092E
:100C0000A00BB10B885E9340A040B04028F42E1595
:100C10003F054007510798F481E00E94DA05809172
:100C2000C4049091C504A091C604B091C7048093F8
:100C3000C8049093C904A093CA04B093CB046091F4
:100C4000C4047091C5048091C6049091C70420919A
:100C5000C8043091C9044091CA045091CB04621B6E
:100C6000730B840B950B0E94E7162091BF04309103
:100C7000C0044091C1045091C2040E949917882376
:100C80001CF080E00E94DA051F910F91FF90EF9019
:100C90000895CF92DF92EF92FF920F931F93F1E9A5
:100CA000CF2EF4E0DF2EC6010E942F0E20E030E0B0
:100CB00040E050E00E94E6157B018C01C6010E94D5
:100CC0002F0E9B01AC01C801B7010E94E61520E080
:100CD00030E040E05FE30E949D171F910F91FF906D
:100CE000EF90DF90CF9008952F923F924F925F92B6
:100CF0006F927F928F929F92AF92BF92CF92DF922C
:100D0000EF92FF920F931F93DF93CF930F92CDB784
:100D1000DEB7E82F59016A01370148018091870445
:100D2000882359F4562EF72E0E2FE92E19822224ED
:100D3000B0E83B2EAFEB4A2E1CC060917F0470914F
:100D40008004882777FD8095982F0E94E9167B0103
:100D50008C0169832F2C302E412E0E940610609347
:100D60008D0470938E0480938F04909390045E2C76
:100D7000E12E84E694E00E94470C0E940610209128
:100D80008D0430918E0440918F0450919004621B29
:100D9000730B840B950B0E94E71620E030E04AE7C6
:100DA00054E40E944E16AB01BC0184E694E022E0BC
:100DB00030E00E94CF1584E694E06CE671E00E947A
:100DC000311584E694E0B601A50122E030E00E94EE
:100DD000CF1584E694E060E041E00E94180C84E6C0
:100DE00094E0252D3F2DE02FFE2DA901BF0122E02B
:100DF00030E00E94CF1584E694E06CE671E00E943A
:100E0000311584E694E0B401A30122E030E00E94B1
:100E1000CF152981322D432D542DB901CA010F90D0
:100E2000CF91DF911F910F91FF90EF90DF90CF90C6
:100E3000BF90AF909F908F907F906F905F904F90FA
:100E40003F902F900895EF92FF920F931F937B0195
:100E50008C014423E1F068EE73E080E090E00E94B2
:100E6000141084E694E062E040E120E00E944F0C20
:100E700084E694E00E94470C85E061E00E94121134
:100E8000609102047091030485E00E94B2100E94F8
:100E9000061060938D0470938E0480938F0490935A
:100EA000900484E190E0909382048093810481E037
:100EB0008093850480917F049091800445971CF471
:100EC00084E190E004C080917F049091800490932D
:100ED000800480937F0488E191E090938404809360
:100EE000830481E08093860480917F049091800444
:100EF000885191401CF088E191E004C080917F040A
:100F0000909180049093800480937F04C801B7017E
:100F10000E94B6167093800460937F041F910F9116
:100F2000FF90EF900895DF93CF9300D000D0CDB71E
:100F3000DEB769837A838B839C83CA01BE016F5FAE
:100F40007F4F44E050E02DEC30E00E94A9000F906C
:100F50000F900F900F90CF91DF9108956093A904A7
:100F60007093AA048093AB049093AC044091BD04A9
:100F70005091BE040E94930708956093A504709356
:100F8000A6048093A7049093A8044091BB045091B9
:100F9000BC040E94930708956093A1047093A20477
:100FA0008093A3049093A4044091B9045091BA048F
:100FB0000E9493070895609354047093550480939E
:100FC0005604909357044CE050E00E949307089514
:100FD000CF93DF938CC18BE895E00E9432139093FE
:100FE000CD048093CC0482359105C1F460E070E0BB
:100FF00080EF91E40E94CC0760E070E080E090E038
:101000000E94BD0760E070E080E090E00E94AE07C3
:1010100060E070E088E493E40E94DB078091CC04F8
:101020009091CD0480359105A1F46091A104709157
:10103000A2048091A3049091A40420910C04309107
:101040000D0440910E0450910F040E94E6150E9479
:10105000CC078091CC049091CD0480379105A1F408
:101060006091A1047091A2048091A3049091A404C2
:1010700020910C0430910D0440910E0450910F0406
:101080000E94E5150E94CC078091CC049091CD047C
:1010900089349105A1F46091A5047091A604809112
:1010A000A7049091A80420910C0430910D04409164
:1010B0000E0450910F040E94E6150E94BD07809116
:1010C000CC049091CD0489369105A1F46091A504DA
:1010D0007091A6048091A7049091A80420910C041B
:1010E00030910D0440910E0450910F040E94E515BB
:1010F0000E94BD078091CC049091CD048434910569
:10110000A1F46091A9047091AA048091AB0490911C
:10111000AC0420910C0430910D0440910E045091C8
:101120000F040E94E6150E94AE078091CC049091B6
:10113000CD0484369105A1F46091A9047091AA04AC
:101140008091AB049091AC0420910C0430910D047B
:1011500040910E0450910F040E94E5150E94AE07C5
:101160008091CC049091CD0484359105A1F46091D7
:101170005404709155048091560490915704209125
:101180000C0430910D0440910E0450910F040E9404
:10119000E6150E94DB078091CC049091CD04843742
:1011A0009105A1F460915404709155048091560406
:1011B0009091570420910C0430910D0440910E043D
:1011C00050910F040E94E5150E94DB07C091CC04EA
:1011D000D091CD04CB32D10559F560910C047091BA
:1011E0000D0480910E0490910F0420E030E040E265
:1011F00051E40E949D1760930C0470930D0480933A
:101200000E0490930F0420E030E048EC52E40E947A
:10121000991718166CF480E090E0A8ECB2E4809383
:101220000C0490930D04A0930E04B0930F0446C0D9
:10123000CD32D10559F560910C0470910D04809167
:101240000E0490910F0420E030E040E251E40E944F
:101250004E1660930C0470930D0480930E049093CB
:101260000F042AE037ED43E25CE30E944A1688232C
:101270006CF48AE097EDA3E2BCE380930C049093B6
:101280000D04A0930E04B0930F041CC0C537D10504
:1012900049F490E08091CE04882309F491E0909382
:1012A000CE0410C0C736D10549F490E08091CF0438
:1012B000882309F491E09093CF0404C0A09711F41F
:1012C0000E9434048091CC049091CD04CF9711F406
:1012D0000E9475058091CC049091CD0482369105D1
:1012E00031F40E94B7048BE895E00E9437148BE834
:1012F00095E00E940113892B09F06DCE0E94061023
:101300002091D0043091D1044091D2045091D30463
:10131000621773078407950740F41092D004109267
:10132000D1041092D2041092D3040E94061020918E
:10133000D0043091D1044091D2045091D304621B67
:10134000730B840B950B693C710581059105C8F001
:1013500028533F4F4F4F5F4F2093D0043093D10419
:101360004093D2045093D3048091CE04882349F053
:101370008091CF04882319F00E94070502C00E94C3
:101380003404DF91CF910895DF93CF9300D000D044
:10139000CDB7DEB7BC01CE01019644E050E025ECAC
:1013A00030E00E948D0029813A814B815C81B90136
:1013B000CA010F900F900F900F90CF91DF91089579
:1013C0008093B9049093BA047093BC046093BB04F7
:1013D0005093BE044093BD040E94C4096093A104CD
:1013E0007093A2048093A3049093A4048091BB04FF
:1013F0009091BC040E94C4096093A5047093A60454
:101400008093A7049093A8048091BD049091BE049A
:101410000E94C4096093A9047093AA048093AB044A
:101420009093AC040895EF92FF920F931F938EE078
:101430000E94A511892B79F48CE090E00E94C409E8
:10144000609354047093550480935604909357040A
:1014500040E00E9423070E94E8070E944A020E947F
:101460000610209160043091610440916204509113
:101470006304621773078407950740F410926004B1
:101480001092610410926204109263040E9406108C
:101490002091600430916104409162045091630492
:1014A000621B730B840B950B693C710581059105DB
:1014B00008F4B3C0609154047091550480915604AF
:1014C000909157042091EE043091EF044091F00484
:1014D0005091F104E0905C04F0905D0400915E0492
:1014E00010915F040E9474067B018C0120E030E0C3
:1014F00040E050E00E949917181644F4E09254041A
:10150000F0925504009356041093570480916004A0
:1015100090916104A0916204B091630488539F4F3D
:10152000AF4FBF4F8093600490936104A093620417
:10153000B0936304609154047091550480915604F3
:10154000909157042091100430911104409112049D
:10155000509113042093EE043093EF044093F00471
:101560005093F1041092F3041092F2040F2EF0E065
:10157000EF2EF0E0FF2EF0E00F2FF0E01F2FF02D08
:10158000E092EA04F092EB040093EC041093ED0473
:101590000E94DA007B018C01609358047093590417
:1015A00080935A0490935B0420E030E040E050E0E8
:1015B0000E944A1618165CF00F2EF0E0EF2EF0E0B5
:1015C000FF2EF0E00F2FF0E01F2FF02D14C0C80108
:1015D000B70120E030E04AE754E40E9499178823DD
:1015E00054F00F2EF0E0EF2EF0E0FF2EFAE70F2F71
:1015F000F4E41F2FF02DE092BF04F092C00400939A
:10160000C1041093C2040E94490660935C04709365
:101610005D0480935E0490935F040E94E4051F9133
:101620000F91FF90EF9008958EE060E00E941211FC
:101630008EE061E00E94511180E090E064E070E093
:1016400048E050E00E94E0098CE090E00E94C4096C
:1016500060935404709355048093560490935704F8
:1016600041E00E9423070E9406106093600470937B
:10167000610480936204909363040E9401030E94BA
:10168000B8050E9406030E94490660935C047093AB
:101690005D0480935E0490935F0408950F931F93FD
:1016A0008C01FC01868160E00E94511181E090E094
:1016B0000E946D10F801868161E00E94511181E065
:1016C00090E00E946D10F801868160E00E94511147
:1016D00084E690E00E946D101F910F910895CF92C3
:1016E000DF92EF92FF920F931F93CF93DF93D82E49
:1016F000C92E282F392FC9018C01C0E0D0E0E62E79
:10170000FF24F801878161E00E941211B7010C2EBD
:1017100002C0759567950A94E2F76170F8018781B8
:101720000E94511121960F5F1F4FC830D10549F714
:101730008D2D9C2D0E944E0BDF91CF911F910F910B
:10174000FF90EF90DF90CF900895CF92DF92EF92CD
:10175000FF920F931F93CF93DF93D82EC92E282F7C
:10176000392FC9018C01C0E0D0E0E62EFF24F8013A
:10177000878161E00E941211B7010C2E02C075959D
:1017800067950A94E2F76170F80187810E94511110
:1017900021960F5F1F4FC430D10549F78D2D9C2D29
:1017A0000E944E0BDF91CF911F910F91FF90EF9010
:1017B000DF90CF9008951F93CF93DF93EC01162F06
:1017C0008C81642F0E9451118D818F3F19F060E050
:1017D0000E9451118F8584FF05C0CE01612F0E94A8
:1017E0006F0B0EC0612F70E084E0759567958A9548
:1017F000E1F7CE010E94A50BCE01612F0E94A50B3F
:10180000DF91CF911F91089541E00E94DB0B81E0B1
:1018100090E0089540E00E94DB0B0895FC01608990
:10182000862F8460808B6C60CF010E940A0C089523
:10183000DF93CF93CDB7DEB728970FB6F894DEBF0E
:101840000FBECDBF9C01FE013196ACE1B4E088E053
:101850000D9001928150E1F7F9018389481710F04A
:10186000482F4150E42FF0E0EE0FFF1FEC0FFD1F5B
:101870008181680F6068C9010E940A0C28960FB622
:10188000F894DEBF0FBECDBFCF91DF91089561E028
:101890000E940A0C80ED97E00E946D100895CF938E
:1018A000DF93EC01423018F08F8588608F874B8B77
:1018B0001C8A222329F0413019F48F8584608F8798
:1018C00080E593EC0E946D108C8160E00E945111C4
:1018D0008E8160E00E9451118D818F3F19F060E090
:1018E0000E9451116F8564FD1DC0CE0163E00E940E
:1018F000A50B84E991E10E946D10CE0163E00E9486
:10190000A50B84E991E10E946D10CE0163E00E9475
:10191000A50B86E990E00E946D10CE0162E00E9466
:10192000A50B16C06062CE010E940A0C84E991E109
:101930000E946D106F856062CE010E940A0C86E9DC
:1019400090E00E946D106F856062CE010E940A0CCB
:101950006F856062CE010E940A0C84E0888BCE0104
:101960000E940E0CCE010E94470C82E0898BCE01B2
:1019700066E00E940A0CDF91CF9108956F927F92EA
:101980008F92AF92CF92EF920F931F93DF93CF93EB
:10199000CDB7DEB73C01162F842FF3014483258396
:1019A0000683E782C086A18682869D8593879E8571
:1019B00094879F8595879889968761E00E94121188
:1019C000F30185818F3F19F061E00E941211F3014C
:1019D000868161E00E941211112319F0F30117862C
:1019E00003C080E1F3018787C30160E141E020E0AB
:1019F0000E944F0CCF91DF911F910F91EF90CF90EC
:101A0000AF908F907F906F9008958F92AF92CF920A
:101A1000DF92EF92FF920F931F93CF93DF93DC013E
:101A2000362F542F722F102FFE2CDC2C8A2C13965D
:101A30001C921E92129788E194E011969C938E93CB
:101A400000D000D0EDB7FEB73196CDB7DEB7198222
:101A5000118212821382CD0161E0432F252F072FBF
:101A6000E12ECF2CAD2C0E94BE0C0F900F900F904A
:101A70000F90DF91CF911F910F91FF90EF90DF902A
:101A8000CF90AF908F900895EF92FF920F931F9396
:101A90007C01FC0182810E94A5118C01F7018081EB
:101AA0000E94A511000F111F082B192BC8011F91AF
:101AB0000F91FF90EF9008951F920F920FB60F9223
:101AC00011242F933F934F935F936F937F938F9343
:101AD0009F93AF93BF93EF93FF938091F404909102
:101AE000F5040E94440DAC01A091F404B091F504FA
:101AF00050968D919C91519748175907C1F11696B0
:101B00002D913C9117975096ED91FC915197EE0FC6
:101B1000FF1FEE0FFF1FE40FF51FEE0FFF1FEC5D21
:101B2000FB4F80819181280F391F1C968C911C9747
:101B3000882341F018968D919C91199728173907A1
:101B40000CF49C011D968C911D97882341F01A96E8
:101B50008D919C911B97821793070CF49C0117960B
:101B60003C932E93169751965C934E9350971496F0
:101B70008C910E94A51120E030E0019711F021E046
:101B800030E0E091F404F091F504878590E02817A7
:101B9000390731F016862115310511F081E086876D
:101BA0001786232B11F081E08787FF91EF91BF917A
:101BB000AF919F918F917F916F915F914F913F91E5
:101BC0002F910F900FBE0F901F901895DF92EF92FC
:101BD000FF920F931F938C01F62EE42ED22EFC0160
:101BE00060837183428353832483358317821682F3
:101BF0001186108613861286148615861686178619
:101C0000138A128A862F60E00E9412118E2D60E0E6
:101C10000E9412118D2D60E00E9412118F2D61E043
:101C20000E9451118E2D61E00E9451118D2D61E0B5
:101C30000E945111C8010E94440DF801918B808BC4
:101C4000E0E7F0E08081816080831093F5040093E9
:101C5000F4041F910F91FF90EF90DF900895EF92A1
:101C6000FF920F931F93CF93DF938C01FC01808130
:101C700060E00E94511162E070E080E090E00E941C
:101C80001410F801808161E00E9451116CED70E048
:101C900080E090E00E941410F801808160E00E94D2
:101CA0005111F801848161E00E94511161E070E0FE
:101CB00080E090E00E941410F801848160E00E94AE
:101CC0005111EE24FF24CBE0D0E0F801848161E0E3
:101CD0000E945111F80182810E94A5110C2E02C0B0
:101CE000880F991F0A94E2F7E80EF91EF801848123
:101CF00060E00E9451112197FFEFCF3FDF0729F7E6
:101D0000F801848161E00E945111F80182810E94F2
:101D1000A511EC01F801848160E00E945111F801E5
:101D2000848161E00E94511161E070E080E090E008
:101D30000E941410F801848160E00E945111F801A2
:101D4000848161E00E94511161E070E080E090E0E8
:101D50000E941410F801848160E00E945111F80182
:101D6000808161E00E945111F80126813781223083
:101D7000310501F5B701882777FD8095982F0E94DE
:101D8000E91620E030E040E85EE30E949D1720E085
:101D900030E040E151E40E949D1720E030E040EA4D
:101DA00050E40E944E1620E030E040E052E40E94F1
:101DB000E61513C0B701882777FD8095982F21304D
:101DC000310549F40E94E91620E030E040E85EE386
:101DD0000E949D1702C00E94E916E62F692FCD2BA5
:101DE00071F0F80160817181709561957F4F88274E
:101DF00077FD8095982F0E94E916E62F692F2E2FE8
:101E0000372F482F562FB901CA01DF91CF911F916B
:101E10000F91FF90EF9008958F929F92AF92BF9293
:101E2000CF92DF92EF92FF920F931F937C01D62EF9
:101E3000A72EC42E952EB22E832E862F61E00E94EF
:101E400012118C2D60E00E9412118B2D61E00E9416
:101E500012118D2D61E00E945111F701D082A182F3
:101E6000C2829382B4828582178306831F910F9169
:101E7000FF90EF90DF90CF90BF90AF909F908F90AA
:101E80000895823000F5E82FF0E0EE0FFF1FEA50D2
:101E9000FB4F71836083882319F08130A1F408C05F
:101EA000809169008C7F842B80936900E89A089563
:101EB00080916900440F551F440F551F837F842B69
:101EC00080936900E99A08951F920F920FB60F92BE
:101ED00011242F933F934F935F936F937F938F932F
:101EE0009F93AF93BF93EF93FF938091F6049091EC
:101EF000F704892B29F0E091F604F091F704099595
:101F0000FF91EF91BF91AF919F918F917F916F91D1
:101F10005F914F913F912F910F900FBE0F901F90A7
:101F200018951F920F920FB60F9211242F933F9383
:101F30004F935F936F937F938F939F93AF93BF93D1
:101F4000EF93FF938091F8049091F904892B29F085
:101F5000E091F804F091F9040995FF91EF91BF9198
:101F6000AF919F918F917F916F915F914F913F9131
:101F70002F910F900FBE0F901F9018951F920F92E8
:101F80000FB60F9211242F933F938F939F93AF938C
:101F9000BF938091FE049091FF04A0910005B09141
:101FA0000105309102050196A11DB11D232F2D5F62
:101FB0002D3720F02D570196A11DB11D209302054C
:101FC0008093FE049093FF04A0930005B093010555
:101FD0008091FA049091FB04A091FC04B091FD045F
:101FE0000196A11DB11D8093FA049093FB04A09368
:101FF000FC04B093FD04BF91AF919F918F913F91ED
:102000002F910F900FBE0F901F9018958FB7F894D7
:102010002091FE043091FF0440910005509101058C
:102020008FBFB901CA0108959B01AC017FB7F89435
:102030008091FA049091FB04A091FC04B091FD04FE
:1020400066B5A89B05C06F3F19F00196A11DB11D93
:102050007FBFBA2FA92F982F8827860F911DA11D0A
:10206000B11D62E0880F991FAA1FBB1F6A95D1F7A7
:10207000BC012DC0FFB7F8948091FA049091FB0445
:10208000A091FC04B091FD04E6B5A89B05C0EF3F0C
:1020900019F00196A11DB11DFFBFBA2FA92F982FCE
:1020A00088278E0F911DA11DB11DE2E0880F991F99
:1020B000AA1FBB1FEA95D1F7861B970B885E93403A
:1020C000C8F2215030404040504068517C4F2115AB
:1020D00031054105510571F60895019739F0880FD2
:1020E000991F880F991F02970197F1F70895789427
:1020F00084B5826084BD84B5816084BD85B582600D
:1021000085BD85B5816085BDEEE6F0E080818160AA
:102110008083E1E8F0E010828081826080838081AA
:1021200081608083E0E8F0E0808181608083E1EB82
:10213000F0E0808184608083E0EBF0E0808181606A
:102140008083EAE7F0E08081846080838081826020
:102150008083808181608083808180688083109209
:10216000C10008951F93CF93DF93182FEB0161E017
:102170000E941211209709F44AC0CF3FD10509F4FB
:1021800049C0E12FF0E0E255FF4F84918330C1F068
:10219000843028F4813051F08230B1F50CC08630A3
:1021A00019F1873049F1843079F514C084B580681D
:1021B00084BDC7BD33C084B5806284BDC8BD2EC098
:1021C00080918000806880938000D0938900C093C4
:1021D000880024C080918000806280938000D0932A
:1021E0008B00C0938A001AC08091B00080688093F1
:1021F000B000C093B30012C08091B00080628093A1
:10220000B000C093B4000AC0C038D1051CF4812FBF
:1022100060E002C0812F61E00E945111DF91CF91F7
:102220001F910895CF93DF93482F50E0CA0186563F
:102230009F4FFC0134914A575F4FFA0184918823E4
:1022400069F190E0880F991FFC01E859FF4FA591B3
:10225000B491FC01EE58FF4FC591D491662351F41F
:102260002FB7F8948C91932F909589238C93888124
:1022700089230BC0623061F42FB7F8948C91932FAF
:10228000909589238C938881832B88832FBF06C0E8
:102290009FB7F8948C91832B8C939FBFDF91CF9144
:1022A0000895482F50E0CA0182559F4FFC012491A8
:1022B000CA0186569F4FFC0194914A575F4FFA011D
:1022C0003491332309F440C0222351F1233071F0BB
:1022D000243028F42130A1F0223011F514C026302A
:1022E000B1F02730C1F02430D9F404C080918000CF
:1022F0008F7703C0809180008F7D8093800010C015
:1023000084B58F7702C084B58F7D84BD09C080916C
:10231000B0008F7703C08091B0008F7D8093B000B4
:10232000E32FF0E0EE0FFF1FEE58FF4FA591B491A1
:102330002FB7F894662321F48C919095892302C0DD
:102340008C91892B8C932FBF0895682F70E0CB015F
:1023500082559F4FFC012491CB0186569F4FFC0173
:1023600044916A577F4FFB019491992319F420E01F
:1023700030E03CC0222351F1233071F0243028F4A6
:102380002130A1F0223011F514C02630B1F02730F1
:10239000C1F02430D9F404C0809180008F7703C04D
:1023A000809180008F7D8093800010C084B58F77EE
:1023B00002C084B58F7D84BD09C08091B0008F7745
:1023C00003C08091B0008F7D8093B000892F90E092
:1023D000880F991F84589F4FFC01A591B4918C914F
:1023E00020E030E0842311F021E030E0C9010895BD
:1023F00008951F920F920FB60F9211242F933F93BF
:102400004F938F939F93EF93FF934091C60020913A
:102410004305309144052F5F3F4F2F7330708091FB
:102420004505909146052817390759F0E091430575
:10243000F0914405ED5FFA4F4083309344052093BB
:102440004305FF91EF919F918F914F913F912F9174
:102450000F900FBE0F901F901895E0919705F09187
:102460009805E05CFF4F8191919120813181821B21
:10247000930B8F739070892B11F00E94F8110895BF
:102480001F920F920FB60F9211242F933F938F93A9
:102490009F93EF93FF93209187053091880580915A
:1024A000890590918A052817390731F48091C10078
:1024B0008F7D8093C10014C0E0918905F0918A0559
:1024C000E95BFA4F20818091890590918A050196F8
:1024D0008F73907090938A05809389052093C6002E
:1024E000FF91EF919F918F913F912F910F900FBE90
:1024F0000F901F901895AF92BF92DF92EF92FF92CC
:102500000F931F93CF93DF93EC017A018B01DD24AE
:10251000403081EE580780E0680780E0780711F0CE
:10252000DD24D39491E0A92EB12CEC89FD89DD2026
:1025300069F0C5010E8C02C0880F991F0A94E2F75A
:10254000808360E079E08DE390E005C0108260E870
:1025500074E88EE190E0A80197010E941F182150B5
:10256000304040405040569547953795279580E13B
:102570002030380720F0DD2011F0DD24D6CFE889A7
:10258000F9893083EA89FB892083EE89FF894081BC
:1025900021E030E0C9010A8C02C0880F991F0A941B
:1025A000E2F7482B4083EE89FF894081C9010B8CFB
:1025B00002C0880F991F0A94E2F7482B4083EE89E6
:1025C000FF894081C9010C8C02C0880F991F0A94B1
:1025D000E2F7482B4083EE89FF8980810D8C02C091
:1025E000220F331F0A94E2F7209528232083DF91DE
:1025F000CF911F910F91FF90EF90DF90BF90AF9020
:102600000895DC011C96ED91FC911D97E05CFF4F55
:102610002191319180819181281B390B2F7330706A
:10262000C9010895DC011C96ED91FC911D97E05CB9
:10263000FF4F20813181E054F040DF01AE5BBF4F9E
:102640008D919C9111972817390719F42FEF3FEFBF
:1026500007C08D919C91E80FF91F8081282F30E0F1
:10266000C9010895DC011C96ED91FC911D97E05C79
:10267000FF4F20813181E054F040DF01AE5BBF4F5E
:102680008D919C9111972817390719F42FEF3FEF7F
:1026900010C08D919C911197E80FF91F20818D91A9
:1026A0009C91119701968F73907011969C938E93C5
:1026B00030E0C9010895FC0186859785DC01A05CA6
:1026C000BF4FFC01EE5BFF4F2D913C911197808134
:1026D000918128173907C1F70895CF93DF93EC0153
:1026E000EE85FF85E05CFF4F20813181E054F040B2
:1026F0002F5F3F4F2F733070DF01AE5BBF4F8D9167
:102700009C91119728173907D1F3E05CFF4F808126
:102710009181E054F040E80FF91F6083EE85FF855A
:10272000E05CFF4F31832083EE89FF89208181E0C7
:1027300090E00D8C02C0880F991F0A94E2F7282BB5
:10274000208381E090E0DF91CF91089510928E0573
:1027500010928D0588EE93E0A0E0B0E080938F05A5
:1027600090939005A0939105B093920588E494E02E
:1027700090938C0580938B0583E095E0909398056A
:102780008093970587E495E090939A058093990547
:1027900085EC90E090939C0580939B0584EC90E001
:1027A00090939E0580939D0580EC90E09093A0050A
:1027B00080939F0581EC90E09093A2058093A10502
:1027C00086EC90E09093A4058093A30584E0809329
:1027D000A50583E08093A60587E08093A70585E0A3
:1027E0008093A80581E08093A9050895CF93DF9396
:1027F0000E9477100E94140BCDE2D2E10E94130ACE
:102800002097E1F30E942D12F9CFCF92DF92EF9241
:10281000FF920F931F93CF93DF937C016B018A018B
:10282000C0E0D0E00FC0D6016D916D01D701ED91F0
:10283000FC910190F081E02DC7010995C80FD91FC7
:10284000015010400115110571F7CE01DF91CF91B4
:102850001F910F91FF90EF90DF90CF900895DC01D2
:10286000ED91FC910190F081E02D09950895EF9292
:10287000FF920F931F938C01DC01ED91FC9101906D
:10288000F081E02D6DE009957C01D801ED91FC917E
:102890000190F081E02DC8016AE009959C012E0DA0
:1028A0003F1DC9011F910F91FF90EF900895CF93A5
:1028B000DF93DB010D900020E9F71197A61BB70B02
:1028C000EC01E881F9810280F381E02DAD010995E9
:1028D000DF91CF9108954F925F927F928F929F9256
:1028E000AF92BF92CF92DF92EF92FF920F931F931E
:1028F000DF93CF93CDB7DEB7A1970FB6F894DEBFC5
:102900000FBECDBF2C01742ECB01223008F42AE07B
:1029100019A231E2C32ED12CCC0EDD1E822E9924B9
:10292000AA24BB24672D752FA50194010E941F18AE
:1029300079018A01C801B701A50194010E9400181C
:10294000472D461B0894C108D1084A3014F4405D55
:1029500001C0495CF6014083E114F1040105110551
:1029600021F07E2C5F2DC801DDCFC201B6010E948F
:102970005714A1960FB6F894DEBF0FBECDBFCF910E
:10298000DF911F910F91FF90EF90DF90CF90BF905C
:10299000AF909F908F907F905F904F900895DC0153
:1029A0002115310541F4ED91FC910190F081E02D6C
:1029B000642F099508950E946B140895CF92DF92B9
:1029C000EF92FF920F931F93CF93DF93EC016A0175
:1029D0007B012115310541F4E881F9810190F081F5
:1029E000E02D642F09951FC02A303105D1F477FFFF
:1029F00017C0E881F9810190F081E02D6DE2099521
:102A00008C0144275527BA014C195D096E097F09CD
:102A1000CE012AE00E946B149801280F391F04C0D0
:102A20002AE00E946B149C01C901DF91CF911F9194
:102A30000F91FF90EF90DF90CF900895EF92FF926B
:102A40000F931F937B019A010027F7FC0095102F2D
:102A5000B801A7010E94DE141F910F91FF90EF9023
:102A600008950E94571408957F928F929F92AF927B
:102A7000BF92CF92DF92EF92FF920F931F93CF936B
:102A8000DF934C017A018B01722ECB01BA0120E059
:102A900030E040E050E00E944A1687FD03C0C0E0ED
:102AA000D0E00EC0D401ED91FC910190F081E02DB9
:102AB000C4016DE20995EC0117FB109517F910950B
:102AC00020E030E040E05FE3AA240BC0CA01B90176
:102AD00020E030E040E251E40E944E169B01AC0140
:102AE000A394A71498F3C801B7010E94E6155B01EF
:102AF0006C010E94BB167B018C01C401B801A701C7
:102B00002AE030E00E94CF14C80FD91F772039F097
:102B1000C40160E074E00E945714C80FD91FC801B7
:102B2000B7010E94E7169B01AC01C601B5010E94E6
:102B3000E51524C020E030E040E251E40E949D17FA
:102B40007B018C010E94B6165B016C01CC24B7FCA2
:102B5000C094DC2CC401B601A5012AE030E00E943B
:102B6000DE14C80FD91FC601B5010E94E9169B01EA
:102B7000AC01C801B7010E94E5157A947720D1F61F
:102B8000CE01DF91CF911F910F91FF90EF90DF90D9
:102B9000CF90BF90AF909F908F907F9008950E94AC
:102BA00034150895EF92FF920F931F937C010E94BA
:102BB00057148C01C7010E943714080F191FC80150
:102BC0001F910F91FF90EF9008955058BB27AA27AF
:102BD0000ED075C166D130F06BD120F031F49F3F3B
:102BE00011F41EF45BC10EF4E095E7FB51C1E92F2F
:102BF00077D180F3BA17620773078407950718F037
:102C000071F49EF58FC10EF4E0950B2EBA2FA02D16
:102C10000B01B90190010C01CA01A0011124FF2789
:102C2000591B99F0593F50F4503E68F11A16F04084
:102C3000A22F232F342F4427585FF3CF4695379583
:102C40002795A795F0405395C9F77EF41F16BA0B48
:102C5000620B730B840BBAF09150A1F0FF0FBB1FF6
:102C6000661F771F881FC2F70EC0BA0F621F731F3F
:102C7000841F48F4879577956795B795F7959E3F9C
:102C800008F0B3CF9395880F08F09927EE0F97952A
:102C900087950895D9D008F481E008950CD00FC12C
:102CA00007D140F0FED030F021F45F3F19F0F0C0C2
:102CB000511139C1F3C014D198F39923C9F35523A5
:102CC000B1F3951B550BBB27AA276217730784071F
:102CD00038F09F5F5F4F220F331F441FAA1FA9F3D5
:102CE00033D00E2E3AF0E0E830D091505040E695C7
:102CF000001CCAF729D0FE2F27D0660F771F881F28
:102D0000BB1F261737074807AB07B0E809F0BB0B16
:102D1000802DBF01FF2793585F4F2AF09E3F51053A
:102D200068F0B6C000C15F3FECF3983EDCF38695D7
:102D300077956795B795F7959F5FC9F7880F911DB0
:102D40009695879597F90895E1E0660F771F881F9C
:102D5000BB1F621773078407BA0720F0621B730B4F
:102D6000840BBA0BEE1F88F7E095089504D06894A1
:102D7000B111D9C00895BCD088F09F5790F0B92FF9
:102D80009927B751A0F0D1F0660F771F881F991FC0
:102D90001AF0BA95C9F712C0B13081F0C3D0B1E0D2
:102DA0000895C0C0672F782F8827B85F39F0B93FE2
:102DB000CCF3869577956795B395D9F73EF49095C2
:102DC0008095709561957F4F8F4F9F4F0895E89440
:102DD00009C097FB3EF490958095709561957F4F63
:102DE0008F4F9F4F9923A9F0F92F96E9BB27939511
:102DF000F695879577956795B795F111F8CFFAF421
:102E0000BB0F11F460FF1BC06F5F7F4F8F4F9F4F51
:102E100016C0882311F096E911C0772321F09EE8AF
:102E2000872F762F05C0662371F096E8862F70E015
:102E300060E02AF09A95660F771F881FDAF7880FEF
:102E40009695879597F90895990F0008550FAA0B45
:102E5000E0E8FEEF16161706E807F907C0F01216AD
:102E60001306E407F50798F0621B730B840B950BB0
:102E700039F40A2661F0232B242B252B21F4089505
:102E80000A2609F4A140A6958FEF811D811D0895A2
:102E900097F99F6780E870E060E008959FEF80EC0D
:102EA000089500240A9416161706180609060895B0
:102EB00000240A9412161306140605060895092E16
:102EC0000394000C11F4882352F0BB0F40F4BF2B85
:102ED00011F460FF04C06F5F7F4F8F4F9F4F0895C5
:102EE00057FD9058440F551F59F05F3F71F04795BB
:102EF000880F97FB991F61F09F3F79F087950895A0
:102F0000121613061406551FF2CF4695F1DF08C0BE
:102F1000161617061806991FF1CF869571056105DB
:102F200008940895E894BB2766277727CB0197F983
:102F300008958ADF08F48FEF08950BD0C0CFB1DF7A
:102F400028F0B6DF18F0952309F0A2CFA7CF1124FF
:102F5000EACFC6DFA0F3959FD1F3950F50E0551F40
:102F6000629FF001729FBB27F00DB11D639FAA27DE
:102F7000F00DB11DAA1F649F6627B00DA11D661F2D
:102F8000829F2227B00DA11D621F739FB00DA11D4E
:102F9000621F839FA00D611D221F749F3327A00D08
:102FA000611D231F849F600D211D822F762F6A2FA4
:102FB00011249F5750408AF0E1F088234AF0EE0F29
:102FC000FF1FBB1F661F771F881F91505040A9F736
:102FD0009E3F510570F05CCFA6CF5F3FECF3983E6B
:102FE000DCF3869577956795B795F795E7959F5F9D
:102FF000C1F7FE2B880F911D9695879597F9089537
:10300000629FD001739FF001829FE00DF11D649FCC
:10301000E00DF11D929FF00D839FF00D749FF00D58
:10302000659FF00D9927729FB00DE11DF91F639FF9
:10303000B00DE11DF91FBD01CF0111240895A1E2DA
:103040001A2EAA1BBB1BFD010DC0AA1FBB1FEE1F22
:10305000FF1FA217B307E407F50720F0A21BB30B6D
:10306000E40BF50B661F771F881F991F1A9469F7E9
:1030700060957095809590959B01AC01BD01CF0145
:103080000895EE0FFF1F0590F491E02D09942F9203
:103090003F924F925F926F927F928F929F92AF92E8
:1030A000BF92CF92DF92EF92FF920F931F93CF9335
:1030B000DF93CDB7DEB7CA1BDB0B0FB6F894DEBFCC
:1030C0000FBECDBF09942A88398848885F846E84F2
:1030D0007D848C849B84AA84B984C884DF80EE803C
:1030E000FD800C811B81AA81B981CE0FD11D0FB645
:1030F000F894DEBF0FBECDBFED010895F894FFCF69
:10310000205345542054454D503A002C20435552ED
:103110002054454D503A002C204741494E532070D1
:103120003A0020693A0020643A002C2044656C740F
:10313000613A20002C20506F7765723A2000200AF7
:103140000050494420666F726D756C6120285020D4
:103150002B2049202D2044293A2000202B2000201C
:103160002D200020504F5745523A200020002C209F
:103170000053656E642074686573652063686172CE
:1031800061637465727320666F7220636F6E747210
:103190006F6C3A003C73706163653E203A20707238
:1031A000696E7420737461747573206E6F77007527
:1031B000203A20746F67676C6520706572696F6470
:1031C00069632073746174757320757064617465CC
:1031D0000067203A20746F67676C652075706461C2
:1031E0007465207374796C65206265747765656EAB
:1031F0002068756D616E20616E6420677261706811
:10320000696E67206D6F64650052203A20726573A5
:1032100065742F696E697469616C697A65205049BB
:1032200044206761696E2076616C75657300622069
:103230003A207072696E742050494420646562754A
:10324000672076616C756573003F203A2070726963
:103250006E742068656C70002B2F2D203A206164FD
:103260006A7573742064656C7461206279206120D2
:10327000666163746F72206F662074656E00502FF4
:1032800070203A2075702F646F776E2061646A75C4
:1032900073742070206761696E2062792064656CA8
:1032A000746100492F69203A2075702F646F776E22
:1032B0002061646A7573742069206761696E206299
:1032C000792064656C746100442F64203A20757025
:1032D0002F646F776E2061646A7573742064206751
:1032E00061696E2062792064656C746100542F748A
:1032F000203A2075702F646F776E2061646A757351
:1033000074207365742074656D7020627920646523
:103310006C7461000A57656C636F6D6520746F2073
:1033200074686520424243432C20746865204261E2
:10333000726520426F6E657320436F666665652017
:10334000436F6E74726F6C6C657220666F72204191
:10335000726475696E6F0053656E64206261636BA1
:10336000206F6E65206F72206D6F726520636861DB
:103370007261637465727320746F20736574757005
:103380002074686520636F6E74726F6C6C65722E4A
:10339000004966207468697320697320796F7572BB
:1033A00020696E697469616C2072756E2C20706C76
:1033B0006561736520656E746572202752272074DD
:1033C0006F205265736574207468652045455052BE
:1033D0004F4D2E00456E74657220273F2720666F83
:1033E000722068656C702E202048657265277320F6
:1033F000746F2061206772656174206375702100AD
:103400002E0050000F001000110001000000803F4E
:103410000000C64200000000040C0514000040003B
:103420001400540000000000000000000100000033
:1034300000000000FFFF000000000000000000008E
:1034400000000000000000006D130514011332138A
:0434500012135B13E5
:00000001FF
