:100000000C9463000C94D30E0C94000F0C948B0092
:100010000C948B000C948B000C948B000C948B0034
:100020000C948B000C945A0D0C948B000C948B0048
:100030000C948B000C948B000C948B000C948B0014
:100040000C942D0F0C948B000C9468110C94AF1130
:100050000C948B000C948B000C948B000C948B00F4
:100060000C948B000C948B000000000024002700EF
:100070002A0000000000250028002B0000000000DE
:1000800023002600290004040404040404040202DA
:100090000202020203030303030301020408102007
:1000A0004080010204081020010204081020000012
:1000B0000007000201000003040600000000000029
:1000C0000000B101151311241FBECFEFD8E0DEBF31
:1000D000CDBF14E0A0E0B1E0EEEDFFE202C005907C
:1000E0000D92A235B107D9F715E0A2E5B4E001C041
:1000F0001D92A63AB107E1F710E0C6ECD0E004C0CB
:100100002297FE010E94B217C23CD107C9F70E9494
:1001100065130C94ED170C940000A0E0B0E0E3E947
:10012000F0E00C94C0177C01EB018A01690109C061
:10013000CE012196F6010995F70181937F010150C7
:10014000104001151105A1F7CDB7DEB7E8E00C941A
:10015000DC17A0E0B0E0EFEAF0E00C94C017EC018F
:100160007B018A01690109C0CE012196F7016191E5
:100170007F01F60109950150104001151105A1F705
:10018000CDB7DEB7E8E00C94DC179C01F999FECFFF
:1001900032BD21BDF89A80B508959C01F999FECF32
:1001A0001FBA32BD21BD60BD0FB6F894FA9AF99A14
:1001B0000FBE08952F923F924F925F926F927F925F
:1001C0008F929F92AF92BF92CF92DF92EF92FF9267
:1001D0000F931F93DF93CF9300D000D0CDB7DEB73E
:1001E00039014A010E9454157B018C0120919D0424
:1001F00030919E0440919F045091A0040E940C17DE
:1002000069837A838B839C836093A9047093AA0487
:100210008093AB049093AC04C801B701209195047E
:100220003091960440919704509198040E9455157E
:100230005B016C016093950470939604809397041E
:10024000909398042090A1043090A2044090A304BD
:100250005090A40460E070E088EC92E4A201910167
:100260000E94BD157B018C01C601B501A801970153
:100270000E940817181664F017FB109517F91095CF
:10028000C601B501A80197010E94B915882344F45D
:10029000E0929504F09296040093970410939804CA
:1002A000C201B101209195043091960440919704C8
:1002B000509198040E940C175B016C016093AD048F
:1002C0007093AE048093AF049093B004C401B30163
:1002D0002091990430919A0440919B0450919C0480
:1002E0000E9454152091A5043091A6044091A704C2
:1002F0005091A8040E940C177B018C016093B104FB
:100300007093B2048093B3049093B4046092990400
:1003100070929A0480929B0490929C0469817A81E5
:100320008B819C81A60195010E945515A80197011A
:100330000E9454150F900F900F900F90CF91DF9166
:100340001F910F91FF90EF90DF90CF90BF90AF90F3
:100350009F908F907F906F905F904F903F902F90E5
:100360000895AF92CF92EF920F9382E694E06CE003
:100370004BE026E007E078E0E72E59E0C52E3AE0B2
:10038000A32E0E94030D87E794E062E070E043E152
:1003900050E022E130E00E94E40D60910804709189
:1003A0000904409104045091050420910604309101
:1003B00007048FE894E00E94900E0F91EF90CF9089
:1003C000AF90089584E00E9414112091D0043091E0
:1003D000D1042F5F3F4F3093D1042093D00420915C
:1003E000D20430E0019709F431E0220F232B20934F
:1003F000D2048091D0049091D104089709F043C0B1
:100400008091D4049091D504892B51F48091D20429
:100410008093D30481E090E09093D5048093D4043A
:100420008091D2048D3059F41092DB041092DA04DA
:1004300081E090E09093DD048093DC041EC0809105
:10044000DC049091DD04892BC1F48091DA04909151
:10045000DB0404974CF4E091DA04F091DB04809122
:10046000D204EA52FB4F80838091DA049091DB043E
:1004700001969093DB048093DA041092D2041092D8
:10048000D1041092D00408958091DC049091DD0491
:10049000019709F05DC00E94750F6093DE047093B0
:1004A000DF048093E0049093E1048091D6048C34BF
:1004B00021F54091D7042091D804742F60E030E0FA
:1004C000622B732B882777FD8095982F0E945816F2
:1004D00020E030E040E85DE30E940C1723E333E9BD
:1004E00048E853E40E94541560930E0470930F047F
:1004F000809310049093110427C08091D60486360F
:1005000019F54091D7042091D804742F60E030E0B1
:10051000622B732B882777FD8095982F0E945816A1
:1005200020E030E040E85DE30E940C1723E333E96C
:1005300048E853E40E9454156093E2047093E30486
:100540008093E4049093E5041092DD041092DC049F
:100550006091E6047091E7048091E8049091E904C9
:1005600020910E0430910F04409110045091110419
:100570000E9455156093E6047093E7048093E804A5
:100580009093E9048091EE049091EF04019690938A
:10059000EF048093EE040E94750F2091DE043091E9
:1005A000DF044091E0045091E104621B730B840B63
:1005B000950B695E734080409040E0F01092D1044A
:1005C0001092D0041092DB041092DA041092D2043C
:1005D0001092DD041092DC041092D5041092D40421
:1005E0000E94750F6093DE047093DF048093E00433
:1005F0009093E10408958DE061E00E9481100895D8
:1006000083E060E00E94811084E060E00E9481103D
:1006100081E062EE71E042E050E00E94B00E089589
:100620002F923F924F925F926F927F928F929F9202
:10063000AF92BF92CF92DF92EF92FF920F931F93F0
:10064000DF93CF9300D000D0CDB7DEB71B012C01D4
:100650005C834B8320E030E040E050E00E94B9151D
:1006600088232CF420E030E040E05FEB04C020E081
:1006700030E040E05FE300E010E00CC0CA01B901E7
:1006800020E030E040E251E40E94BD159B01AC0146
:100690000F5F1F4F8B819C81081719077CF3C201E4
:1006A000B1010E9455155B016C01C201B10120E04E
:1006B00030E040E050E00E94B915882324F4D7FAD6
:1006C000D094D7F8D0940F2EFDEC6F2EFCEC7F2E3B
:1006D000FCEC8F2EFDE39F2EF02D1A82198207C0AD
:1006E000E981FA813196FA83E98337014801C4012F
:1006F000B30120E030E040E251E40E940C177B019E
:100700008C01A60195010E94B91518164CF7C2017B
:10071000B10120E030E040E050E00E94B9158823AC
:100720002CF487E895E06DE20E949E1389819A81FE
:10073000892B41F487E895E060E070E04AE050E002
:100740000E948D144424552433C0C601B501A40170
:1007500093010E94BD150E9425169B01AC017B01EF
:1007600087E895E0B9014AE050E00E948D14002727
:10077000F7FC0095102FC801B7010E945816A4017C
:1007800093010E940C179B01AC01C601B5010E94A8
:1007900054155B016C01C401B30120E030E040E27C
:1007A00051E40E94BD153B014C010894411C511CB1
:1007B000E981FA814E165F0644F28B819C811816FE
:1007C0001906ACF587E895E06EE20E949E13882436
:1007D0009924C601B50120E030E040E251E40E94D6
:1007E0000C175B016C010E9425169B01AC017B017B
:1007F00087E895E0B9014AE050E00E948D14002797
:10080000F7FC0095102FC801B7010E9458169B01F4
:10081000AC01C601B5010E9454155B016C0108943E
:10082000811C911CEB81FC818E169F0694F20F9027
:100830000F900F900F90CF91DF911F910F91FF902C
:10084000EF90DF90CF90BF90AF909F908F907F9070
:100850006F905F904F903F902F9008950F931F934C
:1008600007E815E0C80160E071E00E94A014609103
:10087000520470915304809154049091550442E0C5
:1008800050E00E941003C8016BE071E00E94A014C8
:100890006091EA047091EB048091EC049091ED0476
:1008A00042E050E00E941003C80167E171E00E943D
:1008B000A01460919D0470919E0480919F0490917A
:1008C000A00442E050E00E941003C80162E271E01F
:1008D0000E94A0146091A1047091A2048091A304CD
:1008E0009091A40442E050E00E941003C80166E227
:1008F00071E00E94A0146091A5047091A6048091FB
:10090000A7049091A80442E050E00E941003C8019F
:100910006AE271E00E94A01460910A0470910B04D5
:1009200080910C0490910D0442E050E00E9410036D
:10093000C80164E371E00E94A0146091BB0470914F
:10094000BC048091BD049091BE0440E050E00E9440
:100950001003C8016EE371E00E94A0141F910F9173
:1009600008950F931F9307E815E0C80161E471E053
:100970000E94A0146091A9047091AA048091AB0414
:100980009091AC0442E050E00E941003C8016BE576
:1009900071E00E94A0146091AD047091AE0480914A
:1009A000AF049091B00442E050E00E941003C801EF
:1009B0006FE571E00E94A0146091B1047091B204DF
:1009C0008091B3049091B40442E050E00E9410037F
:1009D000C80163E671E00E94A0146091BB047091AD
:1009E000BC048091BD049091BE0440E050E00E94A0
:1009F0001003C8016CE671E00E94A0141F910F91D2
:100A00000895EF92FF920F931F936091520470919B
:100A10005304809154049091550442E050E00E94A8
:100A20001003E7E8EE2EE5E0FE2E0EE611E0C7012A
:100A3000B8010E94A0146091EA047091EB048091C7
:100A4000EC049091ED0442E050E00E941003C701D5
:100A5000B8010E94A01460919D0470919E04809141
:100A60009F049091A00442E050E00E941003C7014F
:100A7000B8010E94A0146091A1047091A204809119
:100A8000A3049091A40442E050E00E941003C70127
:100A9000B8010E94A0146091A5047091A6048091F1
:100AA000A7049091A80442E050E00E941003C701FF
:100AB000B8010E94A0146091BB047091BC048091A5
:100AC000BD049091BE0440E050E00E941003C701B5
:100AD0000E94A6131F910F91FF90EF9008950F931E
:100AE0001F9307E815E0C80161E771E00E94411516
:100AF000C80164E971E00E944115C8016FEA71E024
:100B00000E944115C80161ED71E00E944115C801C4
:100B100069E072E00E944115C8016EE272E00E9435
:100B20004115C80169E472E00E944115C80168E5F9
:100B300072E00E944115C8016EE772E00E94411503
:100B4000C80163EA72E00E944115C80168EC72E0D6
:100B50000E944115C8016DEE72E00E9441151F917F
:100B60000F9108950F931F9307E815E0C80140E027
:100B700052EC61E070E00E94EA11C80164E173E0A8
:100B80000E944115C80167E573E00E944115C80144
:100B900061E973E00E944115C80164ED73E00E94B1
:100BA00041151F910F9108951F93182F8DE0612F0C
:100BB0000E94C0101093BF041F910895EF92FF92FE
:100BC0000F931F930E94750F9B01AC016093C004AB
:100BD0007093C1048093C2049093C304E090C40452
:100BE000F090C5040091C6041091C704DC01CB014C
:100BF0008E199F09A00BB10B885E9340A040B040B6
:100C000028F42E153F054007510798F481E00E9413
:100C1000D4058091C0049091C104A091C204B09108
:100C2000C3048093C4049093C504A093C604B093F6
:100C3000C7046091C0047091C1048091C204909176
:100C4000C3042091C4043091C5044091C60450915E
:100C5000C704621B730B840B950B0E9456162091E0
:100C6000BB043091BC044091BD045091BE040E946D
:100C7000081788231CF080E00E94D4051F910F9173
:100C8000FF90EF900895EF92FF920F931F93CF93F1
:100C9000DF93C0E0D0E00F2EF0E0EF2EF0E0FF2E6B
:100CA000F0E00F2FF0E01F2FF02D8FE894E00E946E
:100CB0006F0E9B01AC01C801B7010E9455157B0165
:100CC0008C012196C530D10581F720E030E040EA63
:100CD00050E40E94BD15DF91CF911F910F91FF90BD
:100CE000EF9008952F923F924F925F926F927F9272
:100CF0008F929F92AF92BF92CF92DF92EF92FF922C
:100D00000F931F93DF93CF930F92CDB7DEB7E82FEA
:100D100059016A013701480180918504882359F4FB
:100D2000562EF72E0E2FE92E19822224A0E83A2EF5
:100D3000FFEB4F2E1CC060917D0470917E048827CC
:100D400077FD8095982F0E9458167B018C0169834E
:100D50002F2C302E412E0E94750F60938B047093C0
:100D60008C0480938D0490938E045E2CE12E82E699
:100D700094E00E94450C0E94750F20918B043091E5
:100D80008C0440918D0450918E04621B730B840B74
:100D9000950B0E94561620E030E04AE754E40E948A
:100DA000BD15AB01BC0182E694E022E030E00E9478
:100DB0003E1582E694E06CE671E00E94A01482E6A3
:100DC00094E0B601A50122E030E00E943E1582E6E3
:100DD00094E060E041E00E94160C82E694E0252D4C
:100DE0003F2DE02FFE2DA901BF0122E030E00E943F
:100DF0003E1582E694E06CE671E00E94A01482E663
:100E000094E0B401A30122E030E00E943E15298164
:100E1000322D432D542DB901CA010F90CF91DF918E
:100E20001F910F91FF90EF90DF90CF90BF90AF9008
:100E30009F908F907F906F905F904F903F902F90FA
:100E40000895EF92FF920F931F937B018C0144232F
:100E5000E1F068EE73E080E090E00E94830F82E6AC
:100E600094E062E040E120E00E944D0C82E694E0D4
:100E70000E94450C85E061E00E94811060910204AF
:100E80007091030485E00E9421100E94750F609309
:100E90008B0470938C0480938D0490938E0484E172
:100EA00090E09093800480937F0481E0809383049A
:100EB00080917D0490917E0445971CF484E190E03C
:100EC00004C080917D0490917E0490937E04809371
:100ED0007D0488E191E0909382048093810481E015
:100EE0008093840480917D0490917E048851914088
:100EF0001CF088E191E004C080917D0490917E0413
:100F000090937E0480937D04C801B7010E9425164A
:100F100070937E0460937D041F910F91FF90EF907A
:100F20000895DF93CF9300D000D0CDB7DEB76983AB
:100F30007A838B839C83CA01BE016F5F7F4F44E03D
:100F400050E02DEC30E00E94A9000F900F900F9020
:100F50000F90CF91DF9108956093A5047093A6043C
:100F60008093A7049093A8044091B9045091BA04C7
:100F70000E94910708956093A1047093A204809346
:100F8000A3049093A4044091B7045091B8040E9424
:100F90009107089560939D0470939E0480939F042D
:100FA0009093A0044091B5045091B6040E9491071B
:100FB0000895609352047093530480935404909363
:100FC00055044CE050E00E9491070895CF93DF93C1
:100FD0008CC187E895E00E94A1129093C904809388
:100FE000C80482359105C1F460E070E080EF91E4BF
:100FF0000E94CA0760E070E080E090E00E94BB07BA
:1010000060E070E080E090E00E94AC0760E070E09B
:1010100088E493E40E94D9078091C8049091C904A0
:1010200080359105A1F460919D0470919E0480919A
:101030009F049091A00420910A0430910B044091E8
:101040000C0450910D040E9455150E94CA0780910E
:10105000C8049091C90480379105A1F460919D0462
:1010600070919E0480919F049091A00420910A04A5
:1010700030910B0440910C0450910D040E945415C2
:101080000E94CA078091C8049091C90489349105CF
:10109000A1F46091A1047091A2048091A3049091A5
:1010A000A40420910A0430910B0440910C04509147
:1010B0000D040E9455150E94BB078091C8049091B1
:1010C000C90489369105A1F46091A1047091A2042C
:1010D0008091A3049091A40420910A0430910B0400
:1010E00040910C0450910D040E9454150E94BB07BE
:1010F0008091C8049091C90484349105A1F4609151
:10110000A5047091A6048091A7049091A804209151
:101110000A0430910B0440910C0450910D040E947C
:1011200055150E94AC078091C8049091C90484367B
:101130009105A1F46091A5047091A6048091A70483
:101140009091A80420910A0430910B0440910C0462
:1011500050910D040E9454150E94AC078091C80460
:101160009091C90484359105A1F460915204709165
:101170005304809154049091550420910A043091B5
:101180000B0440910C0450910D040E9455150E94CF
:10119000D9078091C8049091C90484379105A1F4BE
:1011A00060915204709153048091540490915504BD
:1011B00020910A0430910B0440910C0450910D04CD
:1011C0000E9454150E94D907C091C804D091C90447
:1011D000CB32D10559F560910A0470910B048091CE
:1011E0000C0490910D0420E030E040E251E40E94B4
:1011F0000C1760930A0470930B0480930C04909373
:101200000D0420E030E048EC52E40E940817181664
:101210006CF480E090E0A8ECB2E480930A04909330
:101220000B04A0930C04B0930D0446C0CD32D1053D
:1012300059F560910A0470910B0480910C0490910F
:101240000D0420E030E040E251E40E94BD156093BF
:101250000A0470930B0480930C0490930D042AE00D
:1012600037ED43E25CE30E94B91588236CF48AE011
:1012700097EDA3E2BCE380930A0490930B04A09340
:101280000C04B0930D041CC0C537D10549F490E09F
:101290008091CA04882309F491E09093CA0410C095
:1012A000C736D10549F490E08091CB04882309F436
:1012B00091E09093CB0404C0A09711F40E942E04F7
:1012C0008091C8049091C904CF9711F40E946F05D2
:1012D0008091C8049091C9048236910531F40E942E
:1012E000B10487E895E00E94A61387E895E00E9484
:1012F0007012892B09F06DCE0E94750F2091CC04DD
:101300003091CD044091CE045091CF046217730701
:101310008407950740F41092CC041092CD041092EB
:10132000CE041092CF040E94750F2091CC0430910E
:10133000CD044091CE045091CF04621B730B840BFB
:10134000950B693C710581059105C8F028533F4F05
:101350004F4F5F4F2093CC043093CD044093CE0485
:101360005093CF048091CA04882349F08091CB0424
:10137000882319F00E94010502C00E942E04DF910B
:10138000CF910895DF93CF9300D000D0CDB7DEB7D3
:10139000BC01CE01019644E050E025EC30E00E9413
:1013A0008D0029813A814B815C81B901CA010F907E
:1013B0000F900F900F90CF91DF9108958093B50417
:1013C0009093B6047093B8046093B7045093BA0432
:1013D0004093B9040E94C20960939D0470939E04D7
:1013E00080939F049093A0048091B7049091B804D7
:1013F0000E94C2096093A1047093A2048093A30485
:101400009093A4048091B9049091BA040E94C209F7
:101410006093A5047093A6048093A7049093A804F6
:101420000895EF92FF920F931F938EE00E94141184
:10143000892B79F48CE090E00E94C20960935204F9
:1014400070935304809354049093550440E00E9499
:1014500021070E94E6070E9444020E94750F209116
:101460005E0430915F044091600450916104621702
:1014700073078407950740F410925E0410925F048E
:1014800010926004109261040E94750F20915E0416
:1014900030915F044091600450916104621B730BB2
:1014A000840B950B693C71058105910508F4B3C067
:1014B00060915204709153048091540490915504AA
:1014C0002091EA043091EB044091EC045091ED043A
:1014D000E0905A04F0905B0400915C0410915D046C
:1014E0000E9472067B018C0120E030E040E050E079
:1014F0000E940817181644F4E0925204F092530424
:10150000009354041093550480915E0490915F04FD
:10151000A0916004B091610488539F4FAF4FBF4FBB
:1015200080935E0490935F04A0936004B093610481
:101530006091520470915304809154049091550429
:1015400020910E0430910F04409110045091110429
:101550002093EA043093EB044093EC045093ED04A1
:101560001092EF041092EE040F2EF0E0EF2EF0E058
:10157000FF2EF0E00F2FF0E01F2FF02DE092E60499
:10158000F092E7040093E8041093E9040E94DA0063
:101590007B018C0160935604709357048093580428
:1015A0009093590420E030E040E050E00E94B915EB
:1015B00018165CF00F2EF0E0EF2EF0E0FF2EF0E0BA
:1015C0000F2FF0E01F2FF02D14C0C801B70120E04D
:1015D00030E04AE754E40E940817882354F00F2EA5
:1015E000F0E0EF2EF0E0FF2EFAE70F2FF4E41F2FCC
:1015F000F02DE092BB04F092BC040093BD04109364
:10160000BE040E94430660935A0470935B04809367
:101610005C0490935D040E94DE051F910F91FF9082
:10162000EF9008958EE060E00E9481108EE061E00E
:101630000E94C01080E090E064E070E048E050E07C
:101640000E94DE098CE090E00E94C209609352047F
:1016500070935304809354049093550441E00E9486
:1016600021070E94750F60935E0470935F0480935E
:101670006004909361040E94FB020E94B2050E94E4
:1016800000030E94430660935A0470935B048093A6
:101690005C0490935D0408950F931F938C01FC01EB
:1016A000868160E00E94C01081E090E00E94DC0F23
:1016B000F801868161E00E94C01081E090E00E9404
:1016C000DC0FF801868160E00E94C01084E690E0A3
:1016D0000E94DC0F1F910F910895CF92DF92EF923D
:1016E000FF920F931F93CF93DF93D82EC92E282FED
:1016F000392FC9018C01C0E0D0E0E62EFF24F801AB
:10170000878161E00E948110B7010C2E02C075959F
:1017100067950A94E2F76170F80187810E94C01012
:1017200021960F5F1F4FC830D10549F78D2D9C2D95
:101730000E944C0BDF91CF911F910F91FF90EF9082
:10174000DF90CF900895CF92DF92EF92FF920F93A8
:101750001F93CF93DF93D82EC92E282F392FC9017D
:101760008C01C0E0D0E0E62EFF24F801878161E023
:101770000E948110B7010C2E02C0759567950A94DE
:10178000E2F76170F80187810E94C01021960F5F17
:101790001F4FC430D10549F78D2D9C2D0E944C0B55
:1017A000DF91CF911F910F91FF90EF90DF90CF903D
:1017B00008951F93CF93DF93EC01162F8C81642F34
:1017C0000E94C0108D818F3F19F060E00E94C01010
:1017D0008F8584FF05C0CE01612F0E946D0B0EC066
:1017E000612F70E084E0759567958A95E1F7CE01E9
:1017F0000E94A30BCE01612F0E94A30BDF91CF911A
:101800001F91089541E00E94D90B81E090E0089576
:1018100040E00E94D90B0895FC016089862F846006
:10182000808B6C60CF010E94080C0895DF93CF93EA
:10183000CDB7DEB728970FB6F894DEBF0FBECDBF89
:101840009C01FE013196AAE1B4E088E00D9001927E
:101850008150E1F7F9018389481710F0482F415072
:10186000E42FF0E0EE0FFF1FEC0FFD1F8181680FEA
:101870006068C9010E94080C28960FB6F894DEBF74
:101880000FBECDBFCF91DF91089561E00E94080C9B
:1018900080ED97E00E94DC0F0895CF93DF93EC0179
:1018A000423018F08F8588608F874B8B1C8A2223EB
:1018B00029F0413019F48F8584608F8780E593EC9F
:1018C0000E94DC0F8C8160E00E94C0108E8160E07D
:1018D0000E94C0108D818F3F19F060E00E94C010FF
:1018E0006F8564FD1DC0CE0163E00E94A30B84E9F7
:1018F00091E10E94DC0FCE0163E00E94A30B84E91A
:1019000091E10E94DC0FCE0163E00E94A30B86E907
:1019100090E00E94DC0FCE0162E00E94A30B16C093
:101920006062CE010E94080C84E991E10E94DC0F04
:101930006F856062CE010E94080C86E990E00E94EB
:10194000DC0F6F856062CE010E94080C6F856062BB
:10195000CE010E94080C84E0888BCE010E940C0C02
:10196000CE010E94450C82E0898BCE0166E00E9488
:10197000080CDF91CF9108956F927F928F92AF9272
:10198000CF92EF920F931F93DF93CF93CDB7DEB734
:101990003C01162F842FF301448325830683E782BD
:1019A000C086A18682869D8593879E8594879F8524
:1019B00095879889968761E00E948110F30185815F
:1019C0008F3F19F061E00E948110F301868161E090
:1019D0000E948110112319F0F301178603C080E1E2
:1019E000F3018787C30160E141E020E00E944D0CD4
:1019F000CF91DF911F910F91EF90CF90AF908F908B
:101A00007F906F9008958F92AF92CF92DF92EF9276
:101A1000FF920F931F93CF93DF93DC01362F542F48
:101A2000722F102FFE2CDC2C8A2C13961C921E92E7
:101A3000129786E194E011969C938E9300D000D08B
:101A4000EDB7FEB73196CDB7DEB71982118212829B
:101A50001382CD0161E0432F252F072FE12ECF2CDC
:101A6000AD2C0E94BC0C0F900F900F900F90DF9147
:101A7000CF911F910F91FF90EF90DF90CF90AF909B
:101A80008F900895EF92FF920F931F937C01FC01BA
:101A900082810E9414118C01F70180810E9414112F
:101AA000000F111F082B192BC8011F910F91FF90D8
:101AB000EF9008951F920F920FB60F9211242F935B
:101AC0003F934F935F936F937F938F939F93AF93C6
:101AD000BF93EF93FF938091F0049091F1040E94E3
:101AE000420DAC01A091F004B091F10450968D919B
:101AF0009C91519748175907C1F116962D913C9129
:101B000017975096ED91FC915197EE0FFF1FEE0F36
:101B1000FF1FE40FF51FEE0FFF1FEE5DFB4F8081EF
:101B20009181280F391F1C968C911C97882341F0B6
:101B300018968D919C911997281739070CF49C01E0
:101B40001D968C911D97882341F01A968D919C913A
:101B50001B97821793070CF49C0117963C932E93C6
:101B6000169751965C934E93509714968C910E94C1
:101B7000141120E030E0019711F021E030E0E09115
:101B8000F004F091F104878590E02817390731F0CF
:101B900016862115310511F081E086871786232BE3
:101BA00011F081E08787FF91EF91BF91AF919F91F5
:101BB0008F917F916F915F914F913F912F910F90F6
:101BC0000FBE0F901F901895DF92EF92FF920F9328
:101BD0001F938C01F62EE42ED22EFC0160837183BC
:101BE000428353832483358317821682118610869D
:101BF000138612861486158616861786138A128A0D
:101C0000862F60E00E9481108E2D60E00E9481107E
:101C10008D2D60E00E9481108F2D61E00E94C01028
:101C20008E2D61E00E94C0108D2D61E00E94C010D9
:101C3000C8010E94420DF801918B808BE0E7F0E033
:101C40008081816080831093F1040093F0041F91E0
:101C50000F91FF90EF90DF900895CF92DF92EF9277
:101C6000FF920F931F93CF93DF938C01FC0182812E
:101C700060E00E94C010CFE0D0E0EE24FF2481E0BD
:101C8000C82ED12CF801808160E00E94C010F801BC
:101C900084810E941411892B49F0C6010C2E02C0C8
:101CA000880F991F0A94E2F7E82AF92AF80180813F
:101CB00061E00E94C0102197FFEFCF3FDF0711F7CF
:101CC000F801828161E00E94C010C701DF91CF91CD
:101CD0001F910F91FF90EF90DF90CF9008950E9499
:101CE0002D0E9C0180FF05C0E0E070E08AEF64E407
:101CF00010C02C7FB901882777FD8095982F0E940E
:101D0000581620E030E040E85DE30E940C17E62F13
:101D1000692F2E2F372F482F562FB901CA0108954A
:101D20000F931F938C01842FF8017183608342838A
:101D300053833583248361E00E948110F801808100
:101D400061E00E948110F801848160E00E948110AE
:101D5000F801828161E00E94C0101F910F910895E7
:101D6000823000F5E82FF0E0EE0FFF1FEE50FB4F42
:101D700071836083882319F08130A1F408C08091B9
:101D800069008C7F842B80936900E89A0895809184
:101D90006900440F551F440F551F837F842B809388
:101DA0006900E99A08951F920F920FB60F921124BD
:101DB0002F933F934F935F936F937F938F939F9353
:101DC000AF93BF93EF93FF938091F2049091F3044C
:101DD000892B29F0E091F204F091F3040995FF9129
:101DE000EF91BF91AF919F918F917F916F915F9193
:101DF0004F913F912F910F900FBE0F901F9018950C
:101E00001F920F920FB60F9211242F933F934F936F
:101E10005F936F937F938F939F93AF93BF93EF9352
:101E2000FF938091F4049091F504892B29F0E091BF
:101E3000F404F091F5040995FF91EF91BF91AF91F2
:101E40009F918F917F916F915F914F913F912F91D2
:101E50000F900FBE0F901F9018951F920F920FB604
:101E60000F9211242F933F938F939F93AF93BF9320
:101E70008091FA049091FB04A091FC04B091FD04C0
:101E80003091FE040196A11DB11D232F2D5F2D372A
:101E900020F02D570196A11DB11D2093FE048093C3
:101EA000FA049093FB04A093FC04B093FD0480918A
:101EB000F6049091F704A091F804B091F90401960A
:101EC000A11DB11D8093F6049093F704A093F8042C
:101ED000B093F904BF91AF919F918F913F912F9152
:101EE0000F900FBE0F901F9018958FB7F894209108
:101EF000FA043091FB044091FC045091FD048FBF23
:101F0000B901CA0108959B01AC017FB7F894809193
:101F1000F6049091F704A091F804B091F90466B525
:101F2000A89B05C06F3F19F00196A11DB11D7FBF91
:101F3000BA2FA92F982F8827860F911DA11DB11D9B
:101F400062E0880F991FAA1FBB1F6A95D1F7BC01D9
:101F50002DC0FFB7F8948091F6049091F704A091FA
:101F6000F804B091F904E6B5A89B05C0EF3F19F05D
:101F70000196A11DB11DFFBFBA2FA92F982F882749
:101F80008E0F911DA11DB11DE2E0880F991FAA1FA0
:101F9000BB1FEA95D1F7861B970B885E9340C8F26A
:101FA000215030404040504068517C4F2115310550
:101FB0004105510571F60895019739F0880F991F71
:101FC000880F991F02970197F1F70895789484B5C7
:101FD000826084BD84B5816084BD85B5826085BD25
:101FE00085B5816085BDEEE6F0E08081816080830B
:101FF000E1E8F0E0108280818260808380818160EE
:102000008083E0E8F0E0808181608083E1EBF0E0B4
:10201000808184608083E0EBF0E080818160808358
:10202000EAE7F0E080818460808380818260808341
:102030008081816080838081806880831092C1006C
:1020400008951F93CF93DF93182FEB0161E00E9457
:102050008110209709F44AC0CF3FD10509F449C047
:10206000E12FF0E0E255FF4F84918330C1F08430DE
:1020700028F4813051F08230B1F50CC0863019F16E
:10208000873049F1843079F514C084B5806884BD07
:10209000C7BD33C084B5806284BDC8BD2EC08091E9
:1020A0008000806880938000D0938900C09388006E
:1020B00024C080918000806280938000D0938B0048
:1020C000C0938A001AC08091B00080688093B000ED
:1020D000C093B30012C08091B00080628093B000C2
:1020E000C093B4000AC0C038D1051CF4812F60E051
:1020F00002C0812F61E00E94C010DF91CF911F913B
:102100000895CF93DF93482F50E0CA0186569F4F22
:10211000FC0134914A575F4FFA018491882369F199
:1021200090E0880F991FFC01E859FF4FA591B491E9
:10213000FC01EE58FF4FC591D491662351F42FB79F
:10214000F8948C91932F909589238C93888189237F
:102150000BC0623061F42FB7F8948C91932F909557
:1021600089238C938881832B88832FBF06C09FB7D8
:10217000F8948C91832B8C939FBFDF91CF9108951E
:10218000482F50E0CA0182559F4FFC012491CA019B
:1021900086569F4FFC0194914A575F4FFA01349144
:1021A000332309F440C0222351F1233071F024304D
:1021B00028F42130A1F0223011F514C02630B1F0FE
:1021C0002730C1F02430D9F404C0809180008F778B
:1021D00003C0809180008F7D8093800010C084B503
:1021E0008F7702C084B58F7D84BD09C08091B00017
:1021F0008F7703C08091B0008F7D8093B000E32F74
:10220000F0E0EE0FFF1FEE58FF4FA591B4912FB7EE
:10221000F894662321F48C919095892302C08C91C7
:10222000892B8C932FBF0895682F70E0CB018255C6
:102230009F4FFC012491CB0186569F4FFC01449196
:102240006A577F4FFB019491992319F420E030E005
:102250003CC0222351F1233071F0243028F4213086
:10226000A1F0223011F514C02630B1F02730C1F0B2
:102270002430D9F404C0809180008F7703C080910E
:1022800080008F7D8093800010C084B58F7702C05E
:1022900084B58F7D84BD09C08091B0008F7703C065
:1022A0008091B0008F7D8093B000892F90E0880FDF
:1022B000991F84589F4FFC01A591B4918C9120E007
:1022C00030E0842311F021E030E0C9010895089541
:1022D0001F920F920FB60F9211242F933F934F939B
:1022E0008F939F93EF93FF934091C60020913F05FA
:1022F000309140052F5F3F4F2F7330708091410523
:10230000909142052817390759F0E0913F05F09167
:102310004005E150FB4F40833093400520933F053B
:10232000FF91EF919F918F914F913F912F910F903E
:102330000FBE0F901F901895E0919305F0919405B2
:10234000E05CFF4F8191919120813181821B930B41
:102350008F739070892B11F00E94671108951F925E
:102360000F920FB60F9211242F933F938F939F9349
:10237000EF93FF932091830530918405809185052B
:10238000909186052817390731F48091C1008F7D1F
:102390008093C10014C0E0918505F0918605ED5B46
:1023A000FA4F2081809185059091860501968F7363
:1023B000907090938605809385052093C600FF91C9
:1023C000EF919F918F913F912F910F900FBE0F90A2
:1023D0001F901895AF92BF92DF92EF92FF920F93EA
:1023E0001F93CF93DF93EC017A018B01DD24403002
:1023F00081EE580780E0680780E0780711F0DD245F
:10240000D39491E0A92EB12CEC89FD89DD2069F0EF
:10241000C5010E8C02C0880F991F0A94E2F78083D1
:1024200060E079E08DE390E005C0108260E874E838
:102430008EE190E0A80197010E948E172150304054
:1024400040405040569547953795279580E120307C
:10245000380720F0DD2011F0DD24D6CFE889F98996
:102460003083EA89FB892083EE89FF89408121E05E
:1024700030E0C9010A8C02C0880F991F0A94E2F764
:10248000482B4083EE89FF894081C9010B8C02C033
:10249000880F991F0A94E2F7482B4083EE89FF8941
:1024A0004081C9010C8C02C0880F991F0A94E2F781
:1024B000482B4083EE89FF8980810D8C02C0220F5A
:1024C000331F0A94E2F7209528232083DF91CF91D0
:1024D0001F910F91FF90EF90DF90BF90AF90089504
:1024E000DC011C96ED91FC911D97E05CFF4F219162
:1024F000319180819181281B390B2F733070C90174
:102500000895DC011C96ED91FC911D97E05CFF4F56
:1025100020813181E054F040DF01AE5BBF4F8D91EF
:102520009C9111972817390719F42FEF3FEF07C037
:102530008D919C91E80FF91F8081282F30E0C9010F
:102540000895DC011C96ED91FC911D97E05CFF4F16
:1025500020813181E054F040DF01AE5BBF4F8D91AF
:102560009C9111972817390719F42FEF3FEF10C0EE
:102570008D919C911197E80FF91F20818D919C916D
:10258000119701968F73907011969C938E9330E003
:10259000C9010895FC0186859785DC01A05CBF4FC9
:1025A000FC01EE5BFF4F2D913C9111978081918151
:1025B00028173907C1F70895CF93DF93EC01EE8513
:1025C000FF85E05CFF4F20813181E054F0402F5FB8
:1025D0003F4F2F733070DF01AE5BBF4F8D919C91E9
:1025E000119728173907D1F3E05CFF4F8081918163
:1025F000E054F040E80FF91F6083EE85FF85E05C52
:10260000FF4F31832083EE89FF89208181E090E0B4
:102610000D8C02C0880F991F0A94E2F7282B2083A3
:1026200081E090E0DF91CF91089510928A05109299
:10263000890588EE93E0A0E0B0E080938B0590934D
:102640008C05A0938D05B0938E0586E494E090935D
:102650008805809387058FEF94E09093940580938D
:10266000930583E495E0909396058093950585EC1A
:1026700090E0909398058093970584EC90E0909378
:102680009A058093990580EC90E090939C05809347
:102690009B0581EC90E090939E0580939D0586ECD0
:1026A00090E09093A00580939F0584E08093A1051E
:1026B00083E08093A20587E08093A30585E0809363
:1026C000A40581E08093A5050895CF93DF930E9430
:1026D000E60F0E94120BCCE9D1E10E94110A20976B
:1026E000E1F30E949C11F9CFCF92DF92EF92FF921B
:1026F0000F931F93CF93DF937C016B018A01C0E09E
:10270000D0E00FC0D6016D916D01D701ED91FC9124
:102710000190F081E02DC7010995C80FD91F015024
:1027200010400115110571F7CE01DF91CF911F9176
:102730000F91FF90EF90DF90CF900895DC01ED9125
:10274000FC910190F081E02D09950895EF92FF92A0
:102750000F931F938C01DC01ED91FC910190F081AE
:10276000E02D6DE009957C01D801ED91FC9101907F
:10277000F081E02DC8016AE009959C012E0D3F1DF6
:10278000C9011F910F91FF90EF900895CF93DF93B0
:10279000DB010D900020E9F71197A61BB70BEC01A8
:1027A000E881F9810280F381E02DAD010995DF9187
:1027B000CF9108954F925F927F928F929F92AF92A6
:1027C000BF92CF92DF92EF92FF920F931F93DF930E
:1027D000CF93CDB7DEB7A1970FB6F894DEBF0FBE8B
:1027E000CDBF2C01742ECB01223008F42AE019A2AF
:1027F00031E2C32ED12CCC0EDD1E822E9924AA24C8
:10280000BB24672D752FA50194010E948E177901B5
:102810008A01C801B701A50194010E946F17472DD5
:10282000461B0894C108D1084A3014F4405D01C029
:10283000495CF6014083E114F1040105110521F022
:102840007E2C5F2DC801DDCFC201B6010E94C613E8
:10285000A1960FB6F894DEBF0FBECDBFCF91DF912A
:102860001F910F91FF90EF90DF90CF90BF90AF90AE
:102870009F908F907F905F904F900895DC0121157D
:10288000310541F4ED91FC910190F081E02D642F30
:10289000099508950E94DA130895CF92DF92EF927E
:1028A000FF920F931F93CF93DF93EC016A017B019B
:1028B0002115310541F4E881F9810190F081E02D85
:1028C000642F09951FC02A303105D1F477FF17C056
:1028D000E881F9810190F081E02D6DE209958C018C
:1028E00044275527BA014C195D096E097F09CE01AD
:1028F0002AE00E94DA139801280F391F04C02AE049
:102900000E94DA139C01C901DF91CF911F910F91B1
:10291000FF90EF90DF90CF900895EF92FF920F938A
:102920001F937B019A010027F7FC0095102FB80137
:10293000A7010E944D141F910F91FF90EF900895F1
:102940000E94C61308957F928F929F92AF92BF927A
:10295000CF92DF92EF92FF920F931F93CF93DF936B
:102960004C017A018B01722ECB01BA0120E030E0DC
:1029700040E050E00E94B91587FD03C0C0E0D0E000
:102980000EC0D401ED91FC910190F081E02DC401C5
:102990006DE20995EC0117FB109517F9109520E0F1
:1029A00030E040E05FE3AA240BC0CA01B90120E097
:1029B00030E040E251E40E94BD159B01AC01A394BC
:1029C000A71498F3C801B7010E9455155B016C016B
:1029D0000E942A167B018C01C401B801A7012AE0DC
:1029E00030E00E943E14C80FD91F772039F0C4018F
:1029F00060E074E00E94C613C80FD91FC801B70178
:102A00000E9456169B01AC01C601B5010E945415E7
:102A100024C020E030E040E251E40E940C177B012A
:102A20008C010E9425165B016C01CC24B7FCC0947C
:102A3000DC2CC401B601A5012AE030E00E944D144F
:102A4000C80FD91FC601B5010E9458169B01AC01E1
:102A5000C801B7010E9454157A947720D1F6CE01AF
:102A6000DF91CF911F910F91FF90EF90DF90CF906A
:102A7000BF90AF909F908F907F9008950E94A31475
:102A80000895EF92FF920F931F937C010E94C6134B
:102A90008C01C7010E94A613080F191FC8011F91BE
:102AA0000F91FF90EF9008955058BB27AA270ED0A2
:102AB00075C166D130F06BD120F031F49F3F11F435
:102AC0001EF45BC10EF4E095E7FB51C1E92F77D10D
:102AD00080F3BA17620773078407950718F071F43B
:102AE0009EF58FC10EF4E0950B2EBA2FA02D0B0191
:102AF000B90190010C01CA01A0011124FF27591B43
:102B000099F0593F50F4503E68F11A16F040A22F48
:102B1000232F342F4427585FF3CF469537952795B9
:102B2000A795F0405395C9F77EF41F16BA0B620BB8
:102B3000730B840BBAF09150A1F0FF0FBB1F661FFF
:102B4000771F881FC2F70EC0BA0F621F731F841F42
:102B500048F4879577956795B795F7959E3F08F068
:102B6000B3CF9395880F08F09927EE0F9795879527
:102B70000895D9D008F481E008950CD00FC107D191
:102B800040F0FED030F021F45F3F19F0F0C0511159
:102B900039C1F3C014D198F39923C9F35523B1F384
:102BA000951B550BBB27AA2762177307840738F0BC
:102BB0009F5F5F4F220F331F441FAA1FA9F333D01B
:102BC0000E2E3AF0E0E830D091505040E695001CCF
:102BD000CAF729D0FE2F27D0660F771F881FBB1F8B
:102BE000261737074807AB07B0E809F0BB0B802D65
:102BF000BF01FF2793585F4F2AF09E3F510568F0B1
:102C0000B6C000C15F3FECF3983EDCF38695779544
:102C10006795B795F7959F5FC9F7880F911D9695B2
:102C2000879597F90895E1E0660F771F881FBB1F0E
:102C3000621773078407BA0720F0621B730B840BBB
:102C4000BA0BEE1F88F7E095089504D06894B1118F
:102C5000D9C00895BCD088F09F5790F0B92F99271C
:102C6000B751A0F0D1F0660F771F881F991F1AF097
:102C7000BA95C9F712C0B13081F0C3D0B1E0089560
:102C8000C0C0672F782F8827B85F39F0B93FCCF3E1
:102C9000869577956795B395D9F73EF4909580958D
:102CA000709561957F4F8F4F9F4F0895E89409C0AD
:102CB00097FB3EF490958095709561957F4F8F4F6F
:102CC0009F4F9923A9F0F92F96E9BB279395F69585
:102CD000879577956795B795F111F8CFFAF4BB0F03
:102CE00011F460FF1BC06F5F7F4F8F4F9F4F16C067
:102CF000882311F096E911C0772321F09EE8872FF1
:102D0000762F05C0662371F096E8862F70E060E0AC
:102D10002AF09A95660F771F881FDAF7880F969525
:102D2000879597F90895990F0008550FAA0BE0E8C9
:102D3000FEEF16161706E807F907C0F0121613067D
:102D4000E407F50798F0621B730B840B950B39F4BD
:102D50000A2661F0232B242B252B21F408950A2623
:102D600009F4A140A6958FEF811D811D089597F963
:102D70009F6780E870E060E008959FEF80EC089521
:102D800000240A941616170618060906089500244A
:102D90000A9412161306140605060895092E0394C4
:102DA000000C11F4882352F0BB0F40F4BF2B11F438
:102DB00060FF04C06F5F7F4F8F4F9F4F089557FD97
:102DC0009058440F551F59F05F3F71F04795880F99
:102DD00097FB991F61F09F3F79F087950895121630
:102DE00013061406551FF2CF4695F1DF08C01616DC
:102DF00017061806991FF1CF86957105610508948D
:102E00000895E894BB2766277727CB0197F90895A3
:102E10008ADF08F48FEF08950BD0C0CFB1DF28F020
:102E2000B6DF18F0952309F0A2CFA7CF1124EACF7F
:102E3000C6DFA0F3959FD1F3950F50E0551F629F19
:102E4000F001729FBB27F00DB11D639FAA27F00D03
:102E5000B11DAA1F649F6627B00DA11D661F829F2A
:102E60002227B00DA11D621F739FB00DA11D621F0F
:102E7000839FA00D611D221F749F3327A00D611D2C
:102E8000231F849F600D211D822F762F6A2F11240E
:102E90009F5750408AF0E1F088234AF0EE0FFF1F61
:102EA000BB1F661F771F881F91505040A9F79E3F98
:102EB000510570F05CCFA6CF5F3FECF3983EDCF39A
:102EC000869577956795B795F795E7959F5FC1F7D5
:102ED000FE2B880F911D9695879597F90895629F0F
:102EE000D001739FF001829FE00DF11D649FE00D02
:102EF000F11D929FF00D839FF00D749FF00D659F63
:102F0000F00D9927729FB00DE11DF91F639FB00D61
:102F1000E11DF91FBD01CF0111240895A1E21A2E70
:102F2000AA1BBB1BFD010DC0AA1FBB1FEE1FFF1F6D
:102F3000A217B307E407F50720F0A21BB30BE40BBD
:102F4000F50B661F771F881F991F1A9469F7609504
:102F50007095809590959B01AC01BD01CF010895BE
:102F6000EE0FFF1F0590F491E02D09942F923F92F0
:102F70004F925F926F927F928F929F92AF92BF9289
:102F8000CF92DF92EF92FF920F931F93CF93DF9335
:102F9000CDB7DEB7CA1BDB0B0FB6F894DEBF0FBE92
:102FA000CDBF09942A88398848885F846E847D84DF
:102FB0008C849B84AA84B984C884DF80EE80FD80E1
:102FC0000C811B81AA81B981CE0FD11D0FB6F89457
:0E2FD000DEBF0FBECDBFED010895F894FFCF18
:102FDE00205345542054454D503A002C2043555211
:102FEE002054454D503A002C204741494E532070F5
:102FFE003A0020693A0020643A002C2044656C7433
:10300E00613A20002C20506F7765723A2000200A1A
:10301E000050494420666F726D756C6120285020F7
:10302E002B2049202D2044293A2000202B2000203F
:10303E002D200020504F5745523A200020002C20C2
:10304E000053656E642074686573652063686172F1
:10305E0061637465727320666F7220636F6E747233
:10306E006F6C3A003C73706163653E203A2070725B
:10307E00696E7420737461747573206E6F7700754A
:10308E00203A20746F67676C6520706572696F6493
:10309E0069632073746174757320757064617465EF
:1030AE000067203A20746F67676C652075706461E5
:1030BE007465207374796C65206265747765656ECE
:1030CE002068756D616E20616E6420677261706834
:1030DE00696E67206D6F64650052203A20726573C9
:1030EE0065742F696E697469616C697A65205049DF
:1030FE0044206761696E2076616C7565730062208D
:10310E003A207072696E742050494420646562756D
:10311E00672076616C756573003F203A2070726986
:10312E006E742068656C70002B2F2D203A20616420
:10313E006A7573742064656C7461206279206120F5
:10314E00666163746F72206F662074656E00502F17
:10315E0070203A2075702F646F776E2061646A75E7
:10316E0073742070206761696E2062792064656CCB
:10317E00746100492F69203A2075702F646F776E45
:10318E002061646A7573742069206761696E2062BC
:10319E00792064656C746100442F64203A20757048
:1031AE002F646F776E2061646A7573742064206774
:1031BE0061696E2062792064656C746100542F74AD
:1031CE00203A2075702F646F776E2061646A757374
:1031DE0074207365742074656D7020627920646547
:1031EE006C7461000A57656C636F6D6520746F2097
:1031FE0074686520424243432C2074686520426106
:10320E00726520426F6E657320436F66666565203A
:10321E00436F6E74726F6C6C657220666F722041B4
:10322E00726475696E6F0053656E64206261636BC4
:10323E00206F6E65206F72206D6F726520636861FE
:10324E007261637465727320746F20736574757028
:10325E002074686520636F6E74726F6C6C65722E6D
:10326E00004966207468697320697320796F7572DE
:10327E0020696E697469616C2072756E2C20706C99
:10328E006561736520656E74657220275227207400
:10329E006F205265736574207468652045455052E1
:1032AE004F4D2E00456E74657220273F2720666FA6
:1032BE00722068656C702E20204865726527732019
:1032CE00746F2061206772656174206375702100D0
:1032DE002E0050000F00100011000000803F000073
:1032EE00C64200000000020C7413000040001400DF
:1032FE00540000000000000000000100000000006B
:10330E000000FFFF000000000000000000000000B1
:10331E00000000000000DC1274137012A112811262
:02332E00CA12C1
:00000001FF
